{
  "contractName": "Calculator",
  "abi": [
    {
      "inputs": [],
      "name": "PORepo",
      "outputs": [
        {
          "internalType": "bytes",
          "name": "",
          "type": "bytes"
        }
      ],
      "stateMutability": "view",
      "type": "function"
    },
    {
      "inputs": [],
      "name": "medicinesRepo",
      "outputs": [
        {
          "internalType": "bytes",
          "name": "",
          "type": "bytes"
        }
      ],
      "stateMutability": "view",
      "type": "function"
    },
    {
      "inputs": [],
      "name": "registeredUsers",
      "outputs": [
        {
          "internalType": "bytes",
          "name": "",
          "type": "bytes"
        }
      ],
      "stateMutability": "view",
      "type": "function"
    },
    {
      "inputs": [],
      "name": "getRegisteredUsers",
      "outputs": [
        {
          "internalType": "string",
          "name": "",
          "type": "string"
        }
      ],
      "stateMutability": "view",
      "type": "function"
    },
    {
      "inputs": [],
      "name": "getMedicinesRepo",
      "outputs": [
        {
          "internalType": "string",
          "name": "",
          "type": "string"
        }
      ],
      "stateMutability": "view",
      "type": "function"
    },
    {
      "inputs": [],
      "name": "getPORepo",
      "outputs": [
        {
          "internalType": "string",
          "name": "",
          "type": "string"
        }
      ],
      "stateMutability": "view",
      "type": "function"
    },
    {
      "inputs": [],
      "name": "clearMedicinesRepo",
      "outputs": [],
      "stateMutability": "nonpayable",
      "type": "function"
    },
    {
      "inputs": [],
      "name": "clearPORepo",
      "outputs": [],
      "stateMutability": "nonpayable",
      "type": "function"
    },
    {
      "inputs": [
        {
          "internalType": "string",
          "name": "arg",
          "type": "string"
        }
      ],
      "name": "addNewUser",
      "outputs": [
        {
          "internalType": "bool",
          "name": "",
          "type": "bool"
        }
      ],
      "stateMutability": "nonpayable",
      "type": "function"
    },
    {
      "inputs": [
        {
          "internalType": "string",
          "name": "arg",
          "type": "string"
        }
      ],
      "name": "addNewDrug",
      "outputs": [
        {
          "internalType": "bool",
          "name": "",
          "type": "bool"
        }
      ],
      "stateMutability": "nonpayable",
      "type": "function"
    },
    {
      "inputs": [
        {
          "internalType": "string",
          "name": "arg",
          "type": "string"
        }
      ],
      "name": "addNewPO",
      "outputs": [
        {
          "internalType": "bool",
          "name": "",
          "type": "bool"
        }
      ],
      "stateMutability": "nonpayable",
      "type": "function"
    }
  ],
  "bytecode": "0x60806040526040518060400160405280600281526020017f5b5d000000000000000000000000000000000000000000000000000000000000815250600090816200004a919062000367565b506040518060400160405280600281526020017f5b5d0000000000000000000000000000000000000000000000000000000000008152506001908162000091919062000367565b506040518060400160405280600281526020017f5b5d00000000000000000000000000000000000000000000000000000000000081525060029081620000d8919062000367565b50348015620000e657600080fd5b506200044e565b600081519050919050565b7f4e487b7100000000000000000000000000000000000000000000000000000000600052604160045260246000fd5b7f4e487b7100000000000000000000000000000000000000000000000000000000600052602260045260246000fd5b600060028204905060018216806200016f57607f821691505b60208210810362000185576200018462000127565b5b50919050565b60008190508160005260206000209050919050565b60006020601f8301049050919050565b600082821b905092915050565b600060088302620001ef7fffffffffffffffffffffffffffffffffffffffffffffffffffffffffffffffff82620001b0565b620001fb8683620001b0565b95508019841693508086168417925050509392505050565b6000819050919050565b6000819050919050565b600062000248620002426200023c8462000213565b6200021d565b62000213565b9050919050565b6000819050919050565b620002648362000227565b6200027c62000273826200024f565b848454620001bd565b825550505050565b600090565b6200029362000284565b620002a081848462000259565b505050565b5b81811015620002c857620002bc60008262000289565b600181019050620002a6565b5050565b601f8211156200031757620002e1816200018b565b620002ec84620001a0565b81016020851015620002fc578190505b620003146200030b85620001a0565b830182620002a5565b50505b505050565b600082821c905092915050565b60006200033c600019846008026200031c565b1980831691505092915050565b600062000357838362000329565b9150826002028217905092915050565b6200037282620000ed565b67ffffffffffffffff8111156200038e576200038d620000f8565b5b6200039a825462000156565b620003a7828285620002cc565b600060209050601f831160018114620003df5760008415620003ca578287015190505b620003d6858262000349565b86555062000446565b601f198416620003ef866200018b565b60005b828110156200041957848901518255600182019150602085019450602081019050620003f2565b8683101562000439578489015162000435601f89168262000329565b8355505b6001600288020188555050505b505050505050565b61147f806200045e6000396000f3fe608060405234801561001057600080fd5b50600436106100a95760003560e01c8063722a771e11610071578063722a771e146101425780637d863fed1461014c578063844636e31461017c578063c34667881461019a578063d70b0551146101b8578063f41f2881146101d6576100a9565b80633801e3fd146100ae57806339b251b5146100b857806351d669b5146100e8578063660d5887146101065780637073c07214610124575b600080fd5b6100b6610206565b005b6100d260048036038101906100cd9190610ca8565b61024d565b6040516100df9190610d0c565b60405180910390f35b6100f06103b6565b6040516100fd9190610da6565b60405180910390f35b61010e610444565b60405161011b9190610da6565b60405180910390f35b61012c6104d2565b6040516101399190610e1d565b60405180910390f35b61014a610564565b005b61016660048036038101906101619190610ca8565b6105ab565b6040516101739190610d0c565b60405180910390f35b610184610715565b6040516101919190610da6565b60405180910390f35b6101a26107a3565b6040516101af9190610e1d565b60405180910390f35b6101c0610835565b6040516101cd9190610e1d565b60405180910390f35b6101f060048036038101906101eb9190610ca8565b6108c7565b6040516101fd9190610d0c565b60405180910390f35b6040518060400160405280600281526020017f5b5d0000000000000000000000000000000000000000000000000000000000008152506001908161024a9190611055565b50565b60006060600280805461025f90610e6e565b90501461033c576103166002805461027690610e6e565b80601f01602080910402602001604051908101604052809291908181526020018280546102a290610e6e565b80156102ef5780601f106102c4576101008083540402835291602001916102ef565b820191906000526020600020905b8154815290600101906020018083116102d257829003601f168201915b5050505050600060016002805461030590610e6e565b90506103119190611156565b610a30565b60405160200161032691906111ec565b6040516020818303038152906040529050610375565b6040518060400160405280600181526020017f5b0000000000000000000000000000000000000000000000000000000000000081525090505b6000839050818160405160200161038d929190611238565b604051602081830303815290604052600290816103aa919061126b565b50600192505050919050565b600280546103c390610e6e565b80601f01602080910402602001604051908101604052809291908181526020018280546103ef90610e6e565b801561043c5780601f106104115761010080835404028352916020019161043c565b820191906000526020600020905b81548152906001019060200180831161041f57829003601f168201915b505050505081565b6000805461045190610e6e565b80601f016020809104026020016040519081016040528092919081815260200182805461047d90610e6e565b80156104ca5780601f1061049f576101008083540402835291602001916104ca565b820191906000526020600020905b8154815290600101906020018083116104ad57829003601f168201915b505050505081565b6060600080546104e190610e6e565b80601f016020809104026020016040519081016040528092919081815260200182805461050d90610e6e565b801561055a5780601f1061052f5761010080835404028352916020019161055a565b820191906000526020600020905b81548152906001019060200180831161053d57829003601f168201915b5050505050905090565b6040518060400160405280600281526020017f5b5d000000000000000000000000000000000000000000000000000000000000815250600290816105a89190611055565b50565b600060606002600080546105be90610e6e565b90501461069b57610675600080546105d590610e6e565b80601f016020809104026020016040519081016040528092919081815260200182805461060190610e6e565b801561064e5780601f106106235761010080835404028352916020019161064e565b820191906000526020600020905b81548152906001019060200180831161063157829003601f168201915b5050505050600060016000805461066490610e6e565b90506106709190611156565b610a30565b60405160200161068591906111ec565b60405160208183030381529060405290506106d4565b6040518060400160405280600181526020017f5b0000000000000000000000000000000000000000000000000000000000000081525090505b600083905081816040516020016106ec929190611238565b60405160208183030381529060405260009081610709919061126b565b50600192505050919050565b6001805461072290610e6e565b80601f016020809104026020016040519081016040528092919081815260200182805461074e90610e6e565b801561079b5780601f106107705761010080835404028352916020019161079b565b820191906000526020600020905b81548152906001019060200180831161077e57829003601f168201915b505050505081565b6060600280546107b290610e6e565b80601f01602080910402602001604051908101604052809291908181526020018280546107de90610e6e565b801561082b5780601f106108005761010080835404028352916020019161082b565b820191906000526020600020905b81548152906001019060200180831161080e57829003601f168201915b5050505050905090565b60606001805461084490610e6e565b80601f016020809104026020016040519081016040528092919081815260200182805461087090610e6e565b80156108bd5780601f10610892576101008083540402835291602001916108bd565b820191906000526020600020905b8154815290600101906020018083116108a057829003601f168201915b5050505050905090565b600060606002600180546108da90610e6e565b9050146109b657610990600180546108f190610e6e565b80601f016020809104026020016040519081016040528092919081815260200182805461091d90610e6e565b801561096a5780601f1061093f5761010080835404028352916020019161096a565b820191906000526020600020905b81548152906001019060200180831161094d57829003601f168201915b50505050506000600180805461097f90610e6e565b905061098b9190611156565b610a30565b6040516020016109a091906111ec565b60405160208183030381529060405290506109ef565b6040518060400160405280600181526020017f5b0000000000000000000000000000000000000000000000000000000000000081525090505b60008390508181604051602001610a07929190611238565b60405160208183030381529060405260019081610a24919061126b565b50600192505050919050565b606081601f83610a40919061133d565b1015610a81576040517f08c379a0000000000000000000000000000000000000000000000000000000008152600401610a78906113bd565b60405180910390fd5b8183610a8d919061133d565b84511015610ad0576040517f08c379a0000000000000000000000000000000000000000000000000000000008152600401610ac790611429565b60405180910390fd5b6060821560008114610af15760405191506000825260208201604052610b42565b6040519150601f8416801560200281840101858101878315602002848b0101015b81831015610b2f5780518352602083019250602081019050610b12565b50868552601f19601f8301166040525050505b50809150509392505050565b6000604051905090565b600080fd5b600080fd5b600080fd5b600080fd5b6000601f19601f8301169050919050565b7f4e487b7100000000000000000000000000000000000000000000000000000000600052604160045260246000fd5b610bb582610b6c565b810181811067ffffffffffffffff82111715610bd457610bd3610b7d565b5b80604052505050565b6000610be7610b4e565b9050610bf38282610bac565b919050565b600067ffffffffffffffff821115610c1357610c12610b7d565b5b610c1c82610b6c565b9050602081019050919050565b82818337600083830152505050565b6000610c4b610c4684610bf8565b610bdd565b905082815260208101848484011115610c6757610c66610b67565b5b610c72848285610c29565b509392505050565b600082601f830112610c8f57610c8e610b62565b5b8135610c9f848260208601610c38565b91505092915050565b600060208284031215610cbe57610cbd610b58565b5b600082013567ffffffffffffffff811115610cdc57610cdb610b5d565b5b610ce884828501610c7a565b91505092915050565b60008115159050919050565b610d0681610cf1565b82525050565b6000602082019050610d216000830184610cfd565b92915050565b600081519050919050565b600082825260208201905092915050565b60005b83811015610d61578082015181840152602081019050610d46565b60008484015250505050565b6000610d7882610d27565b610d828185610d32565b9350610d92818560208601610d43565b610d9b81610b6c565b840191505092915050565b60006020820190508181036000830152610dc08184610d6d565b905092915050565b600081519050919050565b600082825260208201905092915050565b6000610def82610dc8565b610df98185610dd3565b9350610e09818560208601610d43565b610e1281610b6c565b840191505092915050565b60006020820190508181036000830152610e378184610de4565b905092915050565b7f4e487b7100000000000000000000000000000000000000000000000000000000600052602260045260246000fd5b60006002820490506001821680610e8657607f821691505b602082108103610e9957610e98610e3f565b5b50919050565b60008190508160005260206000209050919050565b60006020601f8301049050919050565b600082821b905092915050565b600060088302610f017fffffffffffffffffffffffffffffffffffffffffffffffffffffffffffffffff82610ec4565b610f0b8683610ec4565b95508019841693508086168417925050509392505050565b6000819050919050565b6000819050919050565b6000610f52610f4d610f4884610f23565b610f2d565b610f23565b9050919050565b6000819050919050565b610f6c83610f37565b610f80610f7882610f59565b848454610ed1565b825550505050565b600090565b610f95610f88565b610fa0818484610f63565b505050565b5b81811015610fc457610fb9600082610f8d565b600181019050610fa6565b5050565b601f82111561100957610fda81610e9f565b610fe384610eb4565b81016020851015610ff2578190505b611006610ffe85610eb4565b830182610fa5565b50505b505050565b600082821c905092915050565b600061102c6000198460080261100e565b1980831691505092915050565b6000611045838361101b565b9150826002028217905092915050565b61105e82610dc8565b67ffffffffffffffff81111561107757611076610b7d565b5b6110818254610e6e565b61108c828285610fc8565b600060209050601f8311600181146110bf57600084156110ad578287015190505b6110b78582611039565b86555061111f565b601f1984166110cd86610e9f565b60005b828110156110f5578489015182556001820191506020850194506020810190506110d0565b86831015611112578489015161110e601f89168261101b565b8355505b6001600288020188555050505b505050505050565b7f4e487b7100000000000000000000000000000000000000000000000000000000600052601160045260246000fd5b600061116182610f23565b915061116c83610f23565b925082820390508181111561118457611183611127565b5b92915050565b600081905092915050565b60006111a082610d27565b6111aa818561118a565b93506111ba818560208601610d43565b80840191505092915050565b7f2c00000000000000000000000000000000000000000000000000000000000000815250565b60006111f88284611195565b9150611203826111c6565b60018201915081905092915050565b7f5d00000000000000000000000000000000000000000000000000000000000000815250565b60006112448285611195565b91506112508284611195565b915061125b82611212565b6001820191508190509392505050565b61127482610d27565b67ffffffffffffffff81111561128d5761128c610b7d565b5b6112978254610e6e565b6112a2828285610fc8565b600060209050601f8311600181146112d557600084156112c3578287015190505b6112cd8582611039565b865550611335565b601f1984166112e386610e9f565b60005b8281101561130b578489015182556001820191506020850194506020810190506112e6565b868310156113285784890151611324601f89168261101b565b8355505b6001600288020188555050505b505050505050565b600061134882610f23565b915061135383610f23565b925082820190508082111561136b5761136a611127565b5b92915050565b7f736c6963655f6f766572666c6f77000000000000000000000000000000000000600082015250565b60006113a7600e83610dd3565b91506113b282611371565b602082019050919050565b600060208201905081810360008301526113d68161139a565b9050919050565b7f736c6963655f6f75744f66426f756e6473000000000000000000000000000000600082015250565b6000611413601183610dd3565b915061141e826113dd565b602082019050919050565b6000602082019050818103600083015261144281611406565b905091905056fea264697066735822122025380ce07de8ef98508710e1211ccdc3dd85a83871f8d3d99384b1b1610653cb64736f6c63430008110033",
  "immutableReferences": {},
  "source": "// SPDX-License-Identifier: GPL-3.0\npragma solidity >=0.7.0 <0.9.0;\n\ncontract Calculator {\n    bytes public registeredUsers = '[]';\n    bytes public medicinesRepo = '[]';\n    bytes public PORepo = '[]';\n\n    function getRegisteredUsers() public view returns(string memory){\n        return string(registeredUsers);\n    }\n\n    function getMedicinesRepo() public view returns(string memory){\n        return string(medicinesRepo);\n    }\n\n    function getPORepo() public view returns(string memory){\n        return string(PORepo);\n    }\n\n    function clearMedicinesRepo() public{\n        medicinesRepo = '[]';\n    }\n\n    function clearPORepo() public{\n        PORepo = '[]';\n    }\n\n    function addNewUser(string memory arg) public returns(bool){\n        // uint a = 2;\n        // bytes32 test = \"{\\r\\n  someKey1: 'some value 1',\\r\\n  someKey2: 'some value 2',\\r\\n  someKey3: 'some value 3',\\r\\n}\";\n        // uint balance[] = [1, 2, 3];\n        // uint balance[10];\n        // uint balance[] = new uint[](size);,{\"key5\":\"value5\",\"key6\":\"value6\"}\n        bytes memory existing;\n        if(registeredUsers.length != 2){\n\t\t    existing = bytes.concat(slice(registeredUsers, 0, registeredUsers.length-1), ',');\n        }\n        else{\n\t\t    existing = '[';\n        }\n        bytes memory newUser = bytes(arg);\n        registeredUsers = bytes.concat(existing, newUser, ']');\n        // emit Event(registeredUsers);\n        return true;\n        // return string(registeredUsers);\n        // return string(bstr);\n        // return balance;\n    }\n\n    function addNewDrug(string memory arg) public returns(bool){\n        bytes memory existing;\n        if(medicinesRepo.length != 2){\n\t\t    existing = bytes.concat(slice(medicinesRepo, 0, medicinesRepo.length-1), ',');\n        }\n        else{\n\t\t    existing = '[';\n        }\n        bytes memory newDrug = bytes(arg);\n        medicinesRepo = bytes.concat(existing, newDrug, ']');\n        return true;\n    }\n\n    function addNewPO(string memory arg) public returns(bool){\n        bytes memory existing;\n        if(PORepo.length != 2){\n\t\t    existing = bytes.concat(slice(PORepo, 0, PORepo.length-1), ',');\n        }\n        else{\n\t\t    existing = '[';\n        }\n        bytes memory newPO = bytes(arg);\n        PORepo = bytes.concat(existing, newPO, ']');\n        return true;\n    }\n\n    function slice(\n    bytes memory _bytes,\n    uint256 _start,\n    uint256 _length\n    )\n        internal\n        pure\n        returns (bytes memory)\n    {\n        require(_length + 31 >= _length, \"slice_overflow\");\n        require(_bytes.length >= _start + _length, \"slice_outOfBounds\");\n\n        bytes memory tempBytes;\n\n        assembly {\n            switch iszero(_length)\n            case 0 {\n                tempBytes := mload(0x40)\n                let lengthmod := and(_length, 31)\n                let mc := add(add(tempBytes, lengthmod), mul(0x20, iszero(lengthmod)))\n                let end := add(mc, _length)\n                for {\n                    let cc := add(add(add(_bytes, lengthmod), mul(0x20, iszero(lengthmod))), _start)\n                } lt(mc, end) {\n                    mc := add(mc, 0x20)\n                    cc := add(cc, 0x20)\n                } {\n                    mstore(mc, mload(cc))\n                }\n                mstore(tempBytes, _length)\n                mstore(0x40, and(add(mc, 31), not(31)))\n            }\n            default {\n                tempBytes := mload(0x40)\n                mstore(tempBytes, 0)\n                mstore(0x40, add(tempBytes, 0x20))\n            }\n        }\n        return tempBytes;\n    }\n}\n\n",
  "sourcePath": "C:\\Users\\Herald\\Downloads\\block-chain\\Truffle_Example_1\\contracts\\calculator.sol",
  "compiler": {
    "name": "solc",
    "version": "0.8.17+commit.8df45f5f.Emscripten.clang"
  },
  "schemaVersion": "3.4.11",
  "updatedAt": "2022-12-07T05:03:50.122Z",
  "devdoc": {
    "kind": "dev",
    "methods": {},
    "version": 1
  },
  "userdoc": {
    "kind": "user",
    "methods": {},
    "version": 1
  }
}